:100000002500C00C0200FF0C0600FA0C6309FA0C74
:100010006309FA0C6309FA0C630966062D0AFA0CE7
:10002000630966062D0AFA0C630966062D0AFA0CA6
:10003000630966062D0AFA0C630966062D0AFA0C96
:10004000630966062D0AFA0C630966062D0AFA0C86
:10005000630966062D0AFA0C6309040066062D0A78
:1000600066062D0A66062D0A66062D0A66062D0A04
:1000700066062D0A66062D0A66062D0A66062D0AF4
:1000800066062D0AC80C3200010C630966062D0AAB
:10009000F202440A66062D0A66062D0A66062D0A35
:1000A00066062D0A66062D0A66062D0A66062D0AC4
:1000B00066062D0A66062D0A66062D0AFB0C26002A
:1000C00006000400610A3000FA0C31000400F1025D
:1000D000660AF002640A0008FF0FFF0FFF0FFF0F10
:080400000F000F000F000F00B8
:021FFE00EE3FB4
:00000001FF
