:020000040000FA
:100000002500400A1402E20143086F086D087308D6
:100010006F08660874082008460849085808200830
:1000200056083408200843086F0864086508640807
:10003000200862087908200863086F086D087308B3
:100040006F0866087408200861086B0861082008BA
:100050005808630861086C08690862084508720856
:1000600020086F086E082008310839082F0830086A
:1000700032082F08320830083008350895099A09E7
:10008000C70C0200FE0C0600670068000604040CA2
:1000900032008709080C32006606580A0706530A20
:1000A0008E09010C2700FA0C7E09F2024C0A7A0A2A
:1000B0000400FE0C060001024307620AE803620A1C
:1000C000010CA6010A0C320066065809F202640A05
:1000D000C80C3200010C7E096606580A1202960FFF
:1000E00043068E09F2026A0A0A0C320066065809B3
:1000F000F202760AF90C06002600A70A3000FA0C74
:1001000031000400F102810AF0027F0A0008FA0CB3
:100110007E09010CA601F202870A0008FD0C060008
:1001200026000008FF0C0600000874007500180C7B
:100130003300000804000209B501B402F3029A0A70
:1001400043040304350C95014307A70A0008040083
:02015000A70AFC
:021FFE00EE0FE4
:00000001FF
